{
  "_format": "hh-sol-artifact-1",
  "contractName": "TokenizedBallot",
  "sourceName": "contracts/TokenizedBallot.sol",
  "abi": [
    {
      "inputs": [
        {
          "internalType": "bytes32[]",
          "name": "_proposalNames",
          "type": "bytes32[]"
        },
        {
          "internalType": "address",
          "name": "_tokenContract",
          "type": "address"
        },
        {
          "internalType": "uint256",
          "name": "_targetBlockNumber",
          "type": "uint256"
        }
      ],
      "stateMutability": "nonpayable",
      "type": "constructor"
    },
    {
      "inputs": [
        {
          "internalType": "address",
          "name": "voter",
          "type": "address"
        }
      ],
      "name": "getVotePower",
      "outputs": [
        {
          "internalType": "uint256",
          "name": "",
          "type": "uint256"
        }
      ],
      "stateMutability": "view",
      "type": "function"
    },
    {
      "inputs": [
        {
          "internalType": "uint256",
          "name": "",
          "type": "uint256"
        }
      ],
      "name": "proposals",
      "outputs": [
        {
          "internalType": "bytes32",
          "name": "name",
          "type": "bytes32"
        },
        {
          "internalType": "uint256",
          "name": "voteCount",
          "type": "uint256"
        }
      ],
      "stateMutability": "view",
      "type": "function"
    },
    {
      "inputs": [],
      "name": "targetBlockNumber",
      "outputs": [
        {
          "internalType": "uint256",
          "name": "",
          "type": "uint256"
        }
      ],
      "stateMutability": "view",
      "type": "function"
    },
    {
      "inputs": [],
      "name": "tokenContract",
      "outputs": [
        {
          "internalType": "contract IMyToken",
          "name": "",
          "type": "address"
        }
      ],
      "stateMutability": "view",
      "type": "function"
    },
    {
      "inputs": [
        {
          "internalType": "uint256",
          "name": "proposal",
          "type": "uint256"
        },
        {
          "internalType": "uint256",
          "name": "amount",
          "type": "uint256"
        }
      ],
      "name": "vote",
      "outputs": [],
      "stateMutability": "nonpayable",
      "type": "function"
    },
    {
      "inputs": [
        {
          "internalType": "address",
          "name": "",
          "type": "address"
        }
      ],
      "name": "votePowerSpent",
      "outputs": [
        {
          "internalType": "uint256",
          "name": "",
          "type": "uint256"
        }
      ],
      "stateMutability": "view",
      "type": "function"
    },
    {
      "inputs": [],
      "name": "winnerName",
      "outputs": [
        {
          "internalType": "bytes32",
          "name": "winnerName_",
          "type": "bytes32"
        }
      ],
      "stateMutability": "view",
      "type": "function"
    },
    {
      "inputs": [],
      "name": "winningProposal",
      "outputs": [
        {
          "internalType": "uint256",
          "name": "winningProposal_",
          "type": "uint256"
        }
      ],
      "stateMutability": "view",
      "type": "function"
    }
  ],
  "bytecode": "0x608060405234801561001057600080fd5b50604051610dd9380380610dd983398181016040528101906100329190610386565b816000806101000a81548173ffffffffffffffffffffffffffffffffffffffff021916908373ffffffffffffffffffffffffffffffffffffffff16021790555080600281905550438110156100bc576040517f08c379a00000000000000000000000000000000000000000000000000000000081526004016100b390610478565b60405180910390fd5b60005b835181101561014657600160405180604001604052808684815181106100e8576100e7610498565b5b60200260200101518152602001600081525090806001815401808255809150506001900390600052602060002090600202016000909190919091506000820151816000015560208201518160010155505080806001019150506100bf565b505050506104c7565b6000604051905090565b600080fd5b600080fd5b600080fd5b6000601f19601f8301169050919050565b7f4e487b7100000000000000000000000000000000000000000000000000000000600052604160045260246000fd5b6101b182610168565b810181811067ffffffffffffffff821117156101d0576101cf610179565b5b80604052505050565b60006101e361014f565b90506101ef82826101a8565b919050565b600067ffffffffffffffff82111561020f5761020e610179565b5b602082029050602081019050919050565b600080fd5b6000819050919050565b61023881610225565b811461024357600080fd5b50565b6000815190506102558161022f565b92915050565b600061026e610269846101f4565b6101d9565b9050808382526020820190506020840283018581111561029157610290610220565b5b835b818110156102ba57806102a68882610246565b845260208401935050602081019050610293565b5050509392505050565b600082601f8301126102d9576102d8610163565b5b81516102e984826020860161025b565b91505092915050565b600073ffffffffffffffffffffffffffffffffffffffff82169050919050565b600061031d826102f2565b9050919050565b61032d81610312565b811461033857600080fd5b50565b60008151905061034a81610324565b92915050565b6000819050919050565b61036381610350565b811461036e57600080fd5b50565b6000815190506103808161035a565b92915050565b60008060006060848603121561039f5761039e610159565b5b600084015167ffffffffffffffff8111156103bd576103bc61015e565b5b6103c9868287016102c4565b93505060206103da8682870161033b565b92505060406103eb86828701610371565b9150509250925092565b600082825260208201905092915050565b7f546f6b656e697a656442616c6c6f743a20746172676574426c6f636b4e756d6260008201527f6572206d75737420626520696e20746865206675747572650000000000000000602082015250565b60006104626038836103f5565b915061046d82610406565b604082019050919050565b6000602082019050818103600083015261049181610455565b9050919050565b7f4e487b7100000000000000000000000000000000000000000000000000000000600052603260045260246000fd5b610903806104d66000396000f3fe608060405234801561001057600080fd5b50600436106100885760003560e01c80639e90d0d91161005b5780639e90d0d914610118578063b384abef14610148578063bb9c092014610164578063e2ba53f01461019457610088565b8063013cf08b1461008d5780632a8cd29e146100be57806355a373d6146100dc578063609ff1bd146100fa575b600080fd5b6100a760048036038101906100a291906104f1565b6101b2565b6040516100b5929190610546565b60405180910390f35b6100c66101e6565b6040516100d3919061056f565b60405180910390f35b6100e46101ec565b6040516100f19190610609565b60405180910390f35b610102610210565b60405161010f919061056f565b60405180910390f35b610132600480360381019061012d9190610662565b610292565b60405161013f919061056f565b60405180910390f35b610162600480360381019061015d919061068f565b6102aa565b005b61017e60048036038101906101799190610662565b610391565b60405161018b919061056f565b60405180910390f35b61019c610482565b6040516101a991906106cf565b60405180910390f35b600181815481106101c257600080fd5b90600052602060002090600202016000915090508060000154908060010154905082565b60025481565b60008054906101000a900473ffffffffffffffffffffffffffffffffffffffff1681565b6000806000905060005b60018054905081101561028d57816001828154811061023c5761023b6106ea565b5b90600052602060002090600202016001015411156102805760018181548110610268576102676106ea565b5b90600052602060002090600202016001015491508092505b808060010191505061021a565b505090565b60036020528060005260406000206000915090505481565b60006102b533610391565b9050818110156102fa576040517f08c379a00000000000000000000000000000000000000000000000000000000081526004016102f19061079c565b60405180910390fd5b81600360003373ffffffffffffffffffffffffffffffffffffffff1673ffffffffffffffffffffffffffffffffffffffff168152602001908152602001600020600082825461034991906107eb565b925050819055508160018481548110610365576103646106ea565b5b9060005260206000209060020201600101600082825461038591906107eb565b92505081905550505050565b6000600360008373ffffffffffffffffffffffffffffffffffffffff1673ffffffffffffffffffffffffffffffffffffffff1681526020019081526020016000205460008054906101000a900473ffffffffffffffffffffffffffffffffffffffff1673ffffffffffffffffffffffffffffffffffffffff16633a46b1a8846002546040518363ffffffff1660e01b815260040161043092919061082e565b602060405180830381865afa15801561044d573d6000803e3d6000fd5b505050506040513d601f19601f82011682018060405250810190610471919061086c565b61047b9190610899565b9050919050565b6000600161048e610210565b8154811061049f5761049e6106ea565b5b906000526020600020906002020160000154905090565b600080fd5b6000819050919050565b6104ce816104bb565b81146104d957600080fd5b50565b6000813590506104eb816104c5565b92915050565b600060208284031215610507576105066104b6565b5b6000610515848285016104dc565b91505092915050565b6000819050919050565b6105318161051e565b82525050565b610540816104bb565b82525050565b600060408201905061055b6000830185610528565b6105686020830184610537565b9392505050565b60006020820190506105846000830184610537565b92915050565b600073ffffffffffffffffffffffffffffffffffffffff82169050919050565b6000819050919050565b60006105cf6105ca6105c58461058a565b6105aa565b61058a565b9050919050565b60006105e1826105b4565b9050919050565b60006105f3826105d6565b9050919050565b610603816105e8565b82525050565b600060208201905061061e60008301846105fa565b92915050565b600061062f8261058a565b9050919050565b61063f81610624565b811461064a57600080fd5b50565b60008135905061065c81610636565b92915050565b600060208284031215610678576106776104b6565b5b60006106868482850161064d565b91505092915050565b600080604083850312156106a6576106a56104b6565b5b60006106b4858286016104dc565b92505060206106c5858286016104dc565b9150509250929050565b60006020820190506106e46000830184610528565b92915050565b7f4e487b7100000000000000000000000000000000000000000000000000000000600052603260045260246000fd5b600082825260208201905092915050565b7f546f6b656e697a656442616c6c6f743a20747279696e6720746f20766f74652060008201527f77697468206d6f726520746f6b656e73207468616e20796f7520686176650000602082015250565b6000610786603e83610719565b91506107918261072a565b604082019050919050565b600060208201905081810360008301526107b581610779565b9050919050565b7f4e487b7100000000000000000000000000000000000000000000000000000000600052601160045260246000fd5b60006107f6826104bb565b9150610801836104bb565b9250828201905080821115610819576108186107bc565b5b92915050565b61082881610624565b82525050565b6000604082019050610843600083018561081f565b6108506020830184610537565b9392505050565b600081519050610866816104c5565b92915050565b600060208284031215610882576108816104b6565b5b600061089084828501610857565b91505092915050565b60006108a4826104bb565b91506108af836104bb565b92508282039050818111156108c7576108c66107bc565b5b9291505056fea264697066735822122070df69f4b85968e9ceb3f42da2d00411ae6408775b34808f59883ed0dbe7585f64736f6c634300081b0033",
  "linkReferences": {},
  "deployedLinkReferences": {}
}